{
  "_format": "hh-sol-artifact-1",
  "contractName": "Warehouse",
  "sourceName": "contracts/Warehouse.sol",
  "abi": [
    {
      "inputs": [],
      "stateMutability": "nonpayable",
      "type": "constructor"
    },
    {
      "anonymous": false,
      "inputs": [
        {
          "indexed": true,
          "internalType": "address",
          "name": "account",
          "type": "address"
        },
        {
          "indexed": true,
          "internalType": "address",
          "name": "operator",
          "type": "address"
        },
        {
          "indexed": false,
          "internalType": "bool",
          "name": "approved",
          "type": "bool"
        }
      ],
      "name": "ApprovalForAll",
      "type": "event"
    },
    {
      "anonymous": false,
      "inputs": [
        {
          "indexed": true,
          "internalType": "address",
          "name": "previousOwner",
          "type": "address"
        },
        {
          "indexed": true,
          "internalType": "address",
          "name": "newOwner",
          "type": "address"
        }
      ],
      "name": "OwnershipTransferred",
      "type": "event"
    },
    {
      "anonymous": false,
      "inputs": [
        {
          "indexed": true,
          "internalType": "address",
          "name": "operator",
          "type": "address"
        },
        {
          "indexed": true,
          "internalType": "address",
          "name": "from",
          "type": "address"
        },
        {
          "indexed": true,
          "internalType": "address",
          "name": "to",
          "type": "address"
        },
        {
          "indexed": false,
          "internalType": "uint256[]",
          "name": "ids",
          "type": "uint256[]"
        },
        {
          "indexed": false,
          "internalType": "uint256[]",
          "name": "values",
          "type": "uint256[]"
        }
      ],
      "name": "TransferBatch",
      "type": "event"
    },
    {
      "anonymous": false,
      "inputs": [
        {
          "indexed": true,
          "internalType": "address",
          "name": "operator",
          "type": "address"
        },
        {
          "indexed": true,
          "internalType": "address",
          "name": "from",
          "type": "address"
        },
        {
          "indexed": true,
          "internalType": "address",
          "name": "to",
          "type": "address"
        },
        {
          "indexed": false,
          "internalType": "uint256",
          "name": "id",
          "type": "uint256"
        },
        {
          "indexed": false,
          "internalType": "uint256",
          "name": "value",
          "type": "uint256"
        }
      ],
      "name": "TransferSingle",
      "type": "event"
    },
    {
      "anonymous": false,
      "inputs": [
        {
          "indexed": false,
          "internalType": "string",
          "name": "value",
          "type": "string"
        },
        {
          "indexed": true,
          "internalType": "uint256",
          "name": "id",
          "type": "uint256"
        }
      ],
      "name": "URI",
      "type": "event"
    },
    {
      "inputs": [
        {
          "internalType": "address",
          "name": "account",
          "type": "address"
        },
        {
          "internalType": "uint256",
          "name": "id",
          "type": "uint256"
        }
      ],
      "name": "balanceOf",
      "outputs": [
        {
          "internalType": "uint256",
          "name": "",
          "type": "uint256"
        }
      ],
      "stateMutability": "view",
      "type": "function"
    },
    {
      "inputs": [
        {
          "internalType": "address[]",
          "name": "accounts",
          "type": "address[]"
        },
        {
          "internalType": "uint256[]",
          "name": "ids",
          "type": "uint256[]"
        }
      ],
      "name": "balanceOfBatch",
      "outputs": [
        {
          "internalType": "uint256[]",
          "name": "",
          "type": "uint256[]"
        }
      ],
      "stateMutability": "view",
      "type": "function"
    },
    {
      "inputs": [
        {
          "internalType": "uint256",
          "name": "",
          "type": "uint256"
        }
      ],
      "name": "bicycles",
      "outputs": [
        {
          "internalType": "uint256",
          "name": "id",
          "type": "uint256"
        },
        {
          "internalType": "uint256",
          "name": "idFrame",
          "type": "uint256"
        },
        {
          "internalType": "uint256",
          "name": "idDriveTrain",
          "type": "uint256"
        },
        {
          "internalType": "uint256",
          "name": "idPeripherals",
          "type": "uint256"
        }
      ],
      "stateMutability": "view",
      "type": "function"
    },
    {
      "inputs": [],
      "name": "buildCabling",
      "outputs": [],
      "stateMutability": "nonpayable",
      "type": "function"
    },
    {
      "inputs": [],
      "name": "buildDrivetrain",
      "outputs": [],
      "stateMutability": "nonpayable",
      "type": "function"
    },
    {
      "inputs": [
        {
          "internalType": "uint8",
          "name": "_model",
          "type": "uint8"
        },
        {
          "internalType": "uint8",
          "name": "_mark",
          "type": "uint8"
        },
        {
          "internalType": "uint8",
          "name": "_color",
          "type": "uint8"
        }
      ],
      "name": "buildFrame",
      "outputs": [
        {
          "internalType": "uint256",
          "name": "",
          "type": "uint256"
        }
      ],
      "stateMutability": "nonpayable",
      "type": "function"
    },
    {
      "inputs": [],
      "name": "buildPeripheral",
      "outputs": [],
      "stateMutability": "nonpayable",
      "type": "function"
    },
    {
      "inputs": [],
      "name": "buildWheel",
      "outputs": [],
      "stateMutability": "nonpayable",
      "type": "function"
    },
    {
      "inputs": [
        {
          "internalType": "uint256",
          "name": "_supply",
          "type": "uint256"
        },
        {
          "internalType": "uint8",
          "name": "_model",
          "type": "uint8"
        },
        {
          "internalType": "uint8",
          "name": "_mark",
          "type": "uint8"
        },
        {
          "internalType": "uint8",
          "name": "_color",
          "type": "uint8"
        }
      ],
      "name": "createFrameNFT",
      "outputs": [],
      "stateMutability": "nonpayable",
      "type": "function"
    },
    {
      "inputs": [
        {
          "internalType": "uint256",
          "name": "id",
          "type": "uint256"
        }
      ],
      "name": "exists",
      "outputs": [
        {
          "internalType": "bool",
          "name": "",
          "type": "bool"
        }
      ],
      "stateMutability": "view",
      "type": "function"
    },
    {
      "inputs": [],
      "name": "getAllFrames",
      "outputs": [
        {
          "components": [
            {
              "internalType": "uint256",
              "name": "id",
              "type": "uint256"
            },
            {
              "internalType": "uint8",
              "name": "model",
              "type": "uint8"
            },
            {
              "internalType": "uint8",
              "name": "mark",
              "type": "uint8"
            },
            {
              "internalType": "uint8",
              "name": "color",
              "type": "uint8"
            },
            {
              "internalType": "enum IStock.State",
              "name": "state",
              "type": "uint8"
            }
          ],
          "internalType": "struct IStock.Frame[]",
          "name": "",
          "type": "tuple[]"
        }
      ],
      "stateMutability": "view",
      "type": "function"
    },
    {
      "inputs": [
        {
          "internalType": "uint256",
          "name": "idx",
          "type": "uint256"
        }
      ],
      "name": "getColor",
      "outputs": [
        {
          "internalType": "string",
          "name": "",
          "type": "string"
        }
      ],
      "stateMutability": "view",
      "type": "function"
    },
    {
      "inputs": [],
      "name": "getFrame",
      "outputs": [
        {
          "components": [
            {
              "internalType": "uint256",
              "name": "id",
              "type": "uint256"
            },
            {
              "internalType": "uint8",
              "name": "model",
              "type": "uint8"
            },
            {
              "internalType": "uint8",
              "name": "mark",
              "type": "uint8"
            },
            {
              "internalType": "uint8",
              "name": "color",
              "type": "uint8"
            },
            {
              "internalType": "enum IStock.State",
              "name": "state",
              "type": "uint8"
            }
          ],
          "internalType": "struct IStock.Frame",
          "name": "",
          "type": "tuple"
        }
      ],
      "stateMutability": "view",
      "type": "function"
    },
    {
      "inputs": [
        {
          "internalType": "uint256",
          "name": "idx",
          "type": "uint256"
        }
      ],
      "name": "getMark",
      "outputs": [
        {
          "internalType": "string",
          "name": "",
          "type": "string"
        }
      ],
      "stateMutability": "view",
      "type": "function"
    },
    {
      "inputs": [
        {
          "internalType": "uint256",
          "name": "idx",
          "type": "uint256"
        }
      ],
      "name": "getModel",
      "outputs": [
        {
          "internalType": "string",
          "name": "",
          "type": "string"
        }
      ],
      "stateMutability": "view",
      "type": "function"
    },
    {
      "inputs": [
        {
          "internalType": "address",
          "name": "account",
          "type": "address"
        },
        {
          "internalType": "address",
          "name": "operator",
          "type": "address"
        }
      ],
      "name": "isApprovedForAll",
      "outputs": [
        {
          "internalType": "bool",
          "name": "",
          "type": "bool"
        }
      ],
      "stateMutability": "view",
      "type": "function"
    },
    {
      "inputs": [
        {
          "internalType": "uint256",
          "name": "",
          "type": "uint256"
        }
      ],
      "name": "model",
      "outputs": [
        {
          "internalType": "string",
          "name": "",
          "type": "string"
        }
      ],
      "stateMutability": "view",
      "type": "function"
    },
    {
      "inputs": [],
      "name": "owner",
      "outputs": [
        {
          "internalType": "address",
          "name": "",
          "type": "address"
        }
      ],
      "stateMutability": "view",
      "type": "function"
    },
    {
      "inputs": [],
      "name": "renounceOwnership",
      "outputs": [],
      "stateMutability": "nonpayable",
      "type": "function"
    },
    {
      "inputs": [
        {
          "internalType": "address",
          "name": "from",
          "type": "address"
        },
        {
          "internalType": "address",
          "name": "to",
          "type": "address"
        },
        {
          "internalType": "uint256[]",
          "name": "ids",
          "type": "uint256[]"
        },
        {
          "internalType": "uint256[]",
          "name": "amounts",
          "type": "uint256[]"
        },
        {
          "internalType": "bytes",
          "name": "data",
          "type": "bytes"
        }
      ],
      "name": "safeBatchTransferFrom",
      "outputs": [],
      "stateMutability": "nonpayable",
      "type": "function"
    },
    {
      "inputs": [
        {
          "internalType": "address",
          "name": "from",
          "type": "address"
        },
        {
          "internalType": "address",
          "name": "to",
          "type": "address"
        },
        {
          "internalType": "uint256",
          "name": "id",
          "type": "uint256"
        },
        {
          "internalType": "uint256",
          "name": "amount",
          "type": "uint256"
        },
        {
          "internalType": "bytes",
          "name": "data",
          "type": "bytes"
        }
      ],
      "name": "safeTransferFrom",
      "outputs": [],
      "stateMutability": "nonpayable",
      "type": "function"
    },
    {
      "inputs": [
        {
          "internalType": "address",
          "name": "operator",
          "type": "address"
        },
        {
          "internalType": "bool",
          "name": "approved",
          "type": "bool"
        }
      ],
      "name": "setApprovalForAll",
      "outputs": [],
      "stateMutability": "nonpayable",
      "type": "function"
    },
    {
      "inputs": [
        {
          "internalType": "bytes4",
          "name": "interfaceId",
          "type": "bytes4"
        }
      ],
      "name": "supportsInterface",
      "outputs": [
        {
          "internalType": "bool",
          "name": "",
          "type": "bool"
        }
      ],
      "stateMutability": "view",
      "type": "function"
    },
    {
      "inputs": [
        {
          "internalType": "uint256",
          "name": "",
          "type": "uint256"
        }
      ],
      "name": "tokenUPC",
      "outputs": [
        {
          "internalType": "uint256",
          "name": "",
          "type": "uint256"
        }
      ],
      "stateMutability": "view",
      "type": "function"
    },
    {
      "inputs": [
        {
          "internalType": "uint256",
          "name": "id",
          "type": "uint256"
        }
      ],
      "name": "totalSupply",
      "outputs": [
        {
          "internalType": "uint256",
          "name": "",
          "type": "uint256"
        }
      ],
      "stateMutability": "view",
      "type": "function"
    },
    {
      "inputs": [
        {
          "internalType": "address",
          "name": "newOwner",
          "type": "address"
        }
      ],
      "name": "transferOwnership",
      "outputs": [],
      "stateMutability": "nonpayable",
      "type": "function"
    },
    {
      "inputs": [
        {
          "internalType": "uint256",
          "name": "tokenId",
          "type": "uint256"
        }
      ],
      "name": "uri",
      "outputs": [
        {
          "internalType": "string",
          "name": "",
          "type": "string"
        }
      ],
      "stateMutability": "view",
      "type": "function"
    }
  ],
  "bytecode": "0x60806040526040518061018001604052806040518060400160405280600881526020017f4d6f756e7461696e00000000000000000000000000000000000000000000000081525081526020016040518060400160405280600481526020017f526f61640000000000000000000000000000000000000000000000000000000081525081526020016040518060400160405280600681526020017f487962726964000000000000000000000000000000000000000000000000000081525081526020016040518060400160405280600781526020017f546f7572696e670000000000000000000000000000000000000000000000000081525081526020016040518060400160405280600781526020017f437275736965720000000000000000000000000000000000000000000000000081525081526020016040518060400160405280600781526020017f4f766572616c6c0000000000000000000000000000000000000000000000000081525081526020016040518060400160405280600a81526020017f46697865645f476561720000000000000000000000000000000000000000000081525081526020016040518060400160405280600781526020017f466f6c64696e670000000000000000000000000000000000000000000000000081525081526020016040518060400160405280600681526020017f54616e64656d000000000000000000000000000000000000000000000000000081525081526020016040518060400160405280600981526020017f526563756d62656e74000000000000000000000000000000000000000000000081525081526020016040518060400160405280600581526020017f436172676f00000000000000000000000000000000000000000000000000000081525081526020016040518060400160405280600781526020017f46617462696b6500000000000000000000000000000000000000000000000000815250815250600890600c620002e4929190620008bf565b506040518060e001604052806040518060400160405280600781526020017f42656e6f74746f0000000000000000000000000000000000000000000000000081525081526020016040518060400160405280600581526020017f4769616e7400000000000000000000000000000000000000000000000000000081525081526020016040518060400160405280600381526020017f424d58000000000000000000000000000000000000000000000000000000000081525081526020016040518060400160405280600781526020017f416c7542696b650000000000000000000000000000000000000000000000000081525081526020016040518060400160405280600b81526020017f5370656369616c697a656400000000000000000000000000000000000000000081525081526020016040518060400160405280600681526020017f4d6572696461000000000000000000000000000000000000000000000000000081525081526020016040518060400160405280600881526020017f4d6572637572696f00000000000000000000000000000000000000000000000081525081525060099060076200049d92919062000926565b506040518061018001604052806040518060400160405280600581526020017f426c61636b00000000000000000000000000000000000000000000000000000081525081526020016040518060400160405280600481526020017f426c75650000000000000000000000000000000000000000000000000000000081525081526020016040518060400160405280600481526020017f477261790000000000000000000000000000000000000000000000000000000081525081526020016040518060400160405280600781526020017f486561746865720000000000000000000000000000000000000000000000000081525081526020016040518060400160405280600a81526020017f50617374656c426c75650000000000000000000000000000000000000000000081525081526020016040518060400160405280600b81526020017f50617374656c477265656e00000000000000000000000000000000000000000081525081526020016040518060400160405280600c81526020017f50617374656c4f72616e6765000000000000000000000000000000000000000081525081526020016040518060400160405280600981526020017f50617374656c526564000000000000000000000000000000000000000000000081525081526020016040518060400160405280600c81526020017f50617374656c59656c6c6f77000000000000000000000000000000000000000081525081526020016040518060400160405280600481526020017f50696e6b0000000000000000000000000000000000000000000000000000000081525081526020016040518060400160405280600381526020017f526564000000000000000000000000000000000000000000000000000000000081525081526020016040518060400160405280600581526020017f5768697465000000000000000000000000000000000000000000000000000000815250815250600a90600c6200077e929190620008bf565b503480156200078c57600080fd5b5060405180602001604052806000815250620007ae81620007d560201b60201c565b50620007cf620007c3620007f160201b60201c565b620007f960201b60201c565b62000b10565b8060029080519060200190620007ed9291906200098d565b5050565b600033905090565b6000600360009054906101000a900473ffffffffffffffffffffffffffffffffffffffff16905081600360006101000a81548173ffffffffffffffffffffffffffffffffffffffff021916908373ffffffffffffffffffffffffffffffffffffffff1602179055508173ffffffffffffffffffffffffffffffffffffffff168173ffffffffffffffffffffffffffffffffffffffff167f8be0079c531659141344cd1fd0a4f28419497f9722a3daafe3b4186f6b6457e060405160405180910390a35050565b82805482825590600052602060002090810192821562000913579160200282015b8281111562000912578251829080519060200190620009019291906200098d565b5091602001919060010190620008e0565b5b50905062000922919062000a1e565b5090565b8280548282559060005260206000209081019282156200097a579160200282015b8281111562000979578251829080519060200190620009689291906200098d565b509160200191906001019062000947565b5b50905062000989919062000a1e565b5090565b8280546200099b9062000ada565b90600052602060002090601f016020900481019282620009bf576000855562000a0b565b82601f10620009da57805160ff191683800117855562000a0b565b8280016001018555821562000a0b579182015b8281111562000a0a578251825591602001919060010190620009ed565b5b50905062000a1a919062000a46565b5090565b5b8082111562000a42576000818162000a38919062000a65565b5060010162000a1f565b5090565b5b8082111562000a6157600081600090555060010162000a47565b5090565b50805462000a739062000ada565b6000825580601f1062000a87575062000aa8565b601f01602090049060005260206000209081019062000aa7919062000a46565b5b50565b7f4e487b7100000000000000000000000000000000000000000000000000000000600052602260045260246000fd5b6000600282049050600182168062000af357607f821691505b6020821081141562000b0a5762000b0962000aab565b5b50919050565b6149ab8062000b206000396000f3fe608060405234801561001057600080fd5b50600436106101a85760003560e01c8063715018a6116100f9578063c3d9b51211610097578063ef3bcf0311610071578063ef3bcf03146104f6578063f242432a14610500578063f2fde38b1461051c578063fcfc026914610538576101a8565b8063c3d9b5121461049e578063e67b96e8146104a8578063e985e9c5146104c6576101a8565b80638da5cb5b116100d35780638da5cb5b1461042a578063a22cb46514610448578063a8c2dc1f14610464578063bd85b0391461046e576101a8565b8063715018a6146103d257806380057b9a146103dc5780638ac6bc1a1461040c576101a8565b80632eb2c2d6116101665780634c5770d9116101405780634c5770d9146103125780634e1273f4146103425780634f558e79146103725780636d361694146103a2576101a8565b80632eb2c2d6146102aa5780633e008977146102c657806340a42d2b146102f6576101a8565b8062fdd58e146101ad57806301ffc9a7146101dd5780630c744ce91461020d5780630e89341c1461023d5780631a154eb41461026d57806320b6f13d14610277575b600080fd5b6101c760048036038101906101c291906129a1565b610568565b6040516101d491906129f0565b60405180910390f35b6101f760048036038101906101f29190612a63565b610631565b6040516102049190612aab565b60405180910390f35b61022760048036038101906102229190612ac6565b610713565b60405161023491906129f0565b60405180910390f35b61025760048036038101906102529190612ac6565b61072b565b6040516102649190612b8c565b60405180910390f35b6102756107db565b005b610291600480360381019061028c9190612ac6565b6107dd565b6040516102a19493929190612bae565b60405180910390f35b6102c460048036038101906102bf9190612df0565b61081d565b005b6102e060048036038101906102db9190612ac6565b6108be565b6040516102ed9190612b8c565b60405180910390f35b610310600480360381019061030b9190612ef8565b61096e565b005b61032c60048036038101906103279190612ac6565b610a77565b6040516103399190612b8c565b60405180910390f35b61035c60048036038101906103579190613022565b610b23565b6040516103699190613158565b60405180910390f35b61038c60048036038101906103879190612ac6565b610c3c565b6040516103999190612aab565b60405180910390f35b6103bc60048036038101906103b79190612ac6565b610c50565b6040516103c99190612b8c565b60405180910390f35b6103da610d00565b005b6103f660048036038101906103f19190612ac6565b610d14565b6040516104039190612b8c565b60405180910390f35b610414610dc4565b6040516104219190613268565b60405180910390f35b610432610e7a565b60405161043f9190613292565b60405180910390f35b610462600480360381019061045d91906132d9565b610ea4565b005b61046c610eba565b005b61048860048036038101906104839190612ac6565b610ebc565b60405161049591906129f0565b60405180910390f35b6104a6610ed9565b005b6104b0610edb565b6040516104bd9190613430565b60405180910390f35b6104e060048036038101906104db9190613452565b610fd6565b6040516104ed9190612aab565b60405180910390f35b6104fe61106a565b005b61051a60048036038101906105159190613492565b61106c565b005b61053660048036038101906105319190613529565b61110d565b005b610552600480360381019061054d9190613556565b611191565b60405161055f91906129f0565b60405180910390f35b60008073ffffffffffffffffffffffffffffffffffffffff168373ffffffffffffffffffffffffffffffffffffffff1614156105d9576040517f08c379a00000000000000000000000000000000000000000000000000000000081526004016105d09061361b565b60405180910390fd5b60008083815260200190815260200160002060008473ffffffffffffffffffffffffffffffffffffffff1673ffffffffffffffffffffffffffffffffffffffff16815260200190815260200160002054905092915050565b60007fd9b67a26000000000000000000000000000000000000000000000000000000007bffffffffffffffffffffffffffffffffffffffffffffffffffffffff1916827bffffffffffffffffffffffffffffffffffffffffffffffffffffffff191614806106fc57507f0e89341c000000000000000000000000000000000000000000000000000000007bffffffffffffffffffffffffffffffffffffffffffffffffffffffff1916827bffffffffffffffffffffffffffffffffffffffffffffffffffffffff1916145b8061070c575061070b8261129b565b5b9050919050565b60116020528060005260406000206000915090505481565b606061073682610c3c565b610775576040517f08c379a000000000000000000000000000000000000000000000000000000000815260040161076c906136ad565b60405180910390fd5b60006107b161078384611305565b61078c856113dd565b60405160200161079d929190613a27565b604051602081830303815290604052611528565b9050806040516020016107c49190613ad9565b604051602081830303815290604052915050919050565b565b601081815481106107ed57600080fd5b90600052602060002090600a02016000915090508060000154908060010154908060040154908060090154905084565b6108256116ad565b73ffffffffffffffffffffffffffffffffffffffff168573ffffffffffffffffffffffffffffffffffffffff16148061086b575061086a856108656116ad565b610fd6565b5b6108aa576040517f08c379a00000000000000000000000000000000000000000000000000000000081526004016108a190613b6d565b60405180910390fd5b6108b785858585856116b5565b5050505050565b6060600982815481106108d4576108d3613b8d565b5b9060005260206000200180546108e990613beb565b80601f016020809104026020016040519081016040528092919081815260200182805461091590613beb565b80156109625780601f1061093757610100808354040283529160200191610962565b820191906000526020600020905b81548152906001019060200180831161094557829003601f168201915b50505050509050919050565b610979838383611191565b506000610984610dc4565b9050600b8190806001815401808255809150506001900390600052602060002090600202016000909190919091506000820151816000015560208201518160010160006101000a81548160ff021916908360ff16021790555060408201518160010160016101000a81548160ff021916908360ff16021790555060608201518160010160026101000a81548160ff021916908360ff16021790555060808201518160010160036101000a81548160ff02191690836002811115610a4a57610a49613189565b5b02179055505050610a7033826000015187604051806020016040528060008152506119d7565b5050505050565b60088181548110610a8757600080fd5b906000526020600020016000915090508054610aa290613beb565b80601f0160208091040260200160405190810160405280929190818152602001828054610ace90613beb565b8015610b1b5780601f10610af057610100808354040283529160200191610b1b565b820191906000526020600020905b815481529060010190602001808311610afe57829003601f168201915b505050505081565b60608151835114610b69576040517f08c379a0000000000000000000000000000000000000000000000000000000008152600401610b6090613c8f565b60405180910390fd5b6000835167ffffffffffffffff811115610b8657610b85612bf8565b5b604051908082528060200260200182016040528015610bb45781602001602082028036833780820191505090505b50905060005b8451811015610c3157610c01858281518110610bd957610bd8613b8d565b5b6020026020010151858381518110610bf457610bf3613b8d565b5b6020026020010151610568565b828281518110610c1457610c13613b8d565b5b60200260200101818152505080610c2a90613cde565b9050610bba565b508091505092915050565b600080610c4883610ebc565b119050919050565b606060088281548110610c6657610c65613b8d565b5b906000526020600020018054610c7b90613beb565b80601f0160208091040260200160405190810160405280929190818152602001828054610ca790613beb565b8015610cf45780601f10610cc957610100808354040283529160200191610cf4565b820191906000526020600020905b815481529060010190602001808311610cd757829003601f168201915b50505050509050919050565b610d08611b88565b610d126000611c06565b565b6060600a8281548110610d2a57610d29613b8d565b5b906000526020600020018054610d3f90613beb565b80601f0160208091040260200160405190810160405280929190818152602001828054610d6b90613beb565b8015610db85780601f10610d8d57610100808354040283529160200191610db8565b820191906000526020600020905b815481529060010190602001808311610d9b57829003601f168201915b50505050509050919050565b610dcc6128af565b60056040518060a0016040529081600082015481526020016001820160009054906101000a900460ff1660ff1660ff1681526020016001820160019054906101000a900460ff1660ff1660ff1681526020016001820160029054906101000a900460ff1660ff1660ff1681526020016001820160039054906101000a900460ff166002811115610e5f57610e5e613189565b5b6002811115610e7157610e70613189565b5b81525050905090565b6000600360009054906101000a900473ffffffffffffffffffffffffffffffffffffffff16905090565b610eb6610eaf6116ad565b8383611ccc565b5050565b565b600060046000838152602001908152602001600020549050919050565b565b6060600b805480602002602001604051908101604052809291908181526020016000905b82821015610fcd57838290600052602060002090600202016040518060a0016040529081600082015481526020016001820160009054906101000a900460ff1660ff1660ff1681526020016001820160019054906101000a900460ff1660ff1660ff1681526020016001820160029054906101000a900460ff1660ff1660ff1681526020016001820160039054906101000a900460ff166002811115610fa857610fa7613189565b5b6002811115610fba57610fb9613189565b5b8152505081526020019060010190610eff565b50505050905090565b6000600160008473ffffffffffffffffffffffffffffffffffffffff1673ffffffffffffffffffffffffffffffffffffffff16815260200190815260200160002060008373ffffffffffffffffffffffffffffffffffffffff1673ffffffffffffffffffffffffffffffffffffffff16815260200190815260200160002060009054906101000a900460ff16905092915050565b565b6110746116ad565b73ffffffffffffffffffffffffffffffffffffffff168573ffffffffffffffffffffffffffffffffffffffff1614806110ba57506110b9856110b46116ad565b610fd6565b5b6110f9576040517f08c379a00000000000000000000000000000000000000000000000000000000081526004016110f090613b6d565b60405180910390fd5b6111068585858585611e39565b5050505050565b611115611b88565b600073ffffffffffffffffffffffffffffffffffffffff168173ffffffffffffffffffffffffffffffffffffffff161415611185576040517f08c379a000000000000000000000000000000000000000000000000000000000815260040161117c90613d99565b60405180910390fd5b61118e81611c06565b50565b600061119d60076120d5565b60006111a960076120eb565b90506040518060a001604052808281526020018660ff1681526020018560ff1681526020018460ff168152602001600060028111156111eb576111ea613189565b5b81525060056000820151816000015560208201518160010160006101000a81548160ff021916908360ff16021790555060408201518160010160016101000a81548160ff021916908360ff16021790555060608201518160010160026101000a81548160ff021916908360ff16021790555060808201518160010160036101000a81548160ff0219169083600281111561128857611287613189565b5b0217905550905050809150509392505050565b60007f01ffc9a7000000000000000000000000000000000000000000000000000000007bffffffffffffffffffffffffffffffffffffffffffffffffffffffff1916827bffffffffffffffffffffffffffffffffffffffffffffffffffffffff1916149050919050565b606060006001611314846120f9565b01905060008167ffffffffffffffff81111561133357611332612bf8565b5b6040519080825280601f01601f1916602001820160405280156113655781602001600182028036833780820191505090505b509050600082602001820190505b6001156113d2578080600190039150507f3031323334353637383961626364656600000000000000000000000000000000600a86061a8153600a85816113bc576113bb613db9565b5b04945060008514156113cd576113d2565b611373565b819350505050919050565b6060806000600b6001856113f19190613de8565b8154811061140257611401613b8d565b5b90600052602060002090600202016040518060a0016040529081600082015481526020016001820160009054906101000a900460ff1660ff1660ff1681526020016001820160019054906101000a900460ff1660ff1660ff1681526020016001820160029054906101000a900460ff1660ff1660ff1681526020016001820160039054906101000a900460ff1660028111156114a1576114a0613189565b5b60028111156114b3576114b2613189565b5b8152505090506000816020015160ff1690506000826040015160ff1690506000836060015160ff1690506114e683610c50565b6114ef83610c50565b6114f883610c50565b60405160200161150a93929190614030565b60405160208183030381529060405294508495505050505050919050565b606060008251141561154b576040518060200160405280600081525090506116a8565b6000604051806060016040528060408152602001614936604091399050600060036002855161157a91906140da565b6115849190614130565b60046115909190614161565b905060006020826115a191906140da565b67ffffffffffffffff8111156115ba576115b9612bf8565b5b6040519080825280601f01601f1916602001820160405280156115ec5781602001600182028036833780820191505090505b509050818152600183018586518101602084015b81831015611667576003830192508251603f8160121c1685015160f81b8252600182019150603f81600c1c1685015160f81b8252600182019150603f8160061c1685015160f81b8252600182019150603f811685015160f81b825260018201915050611600565b60038951066001811461168157600281146116915761169c565b613d3d60f01b600283035261169c565b603d60f81b60018303525b50505050508093505050505b919050565b600033905090565b81518351146116f9576040517f08c379a00000000000000000000000000000000000000000000000000000000081526004016116f09061422d565b60405180910390fd5b600073ffffffffffffffffffffffffffffffffffffffff168473ffffffffffffffffffffffffffffffffffffffff161415611769576040517f08c379a0000000000000000000000000000000000000000000000000000000008152600401611760906142bf565b60405180910390fd5b60006117736116ad565b905061178381878787878761224c565b60005b84518110156119345760008582815181106117a4576117a3613b8d565b5b6020026020010151905060008583815181106117c3576117c2613b8d565b5b60200260200101519050600080600084815260200190815260200160002060008b73ffffffffffffffffffffffffffffffffffffffff1673ffffffffffffffffffffffffffffffffffffffff16815260200190815260200160002054905081811015611864576040517f08c379a000000000000000000000000000000000000000000000000000000000815260040161185b90614351565b60405180910390fd5b81810360008085815260200190815260200160002060008c73ffffffffffffffffffffffffffffffffffffffff1673ffffffffffffffffffffffffffffffffffffffff168152602001908152602001600020819055508160008085815260200190815260200160002060008b73ffffffffffffffffffffffffffffffffffffffff1673ffffffffffffffffffffffffffffffffffffffff168152602001908152602001600020600082825461191991906140da565b925050819055505050508061192d90613cde565b9050611786565b508473ffffffffffffffffffffffffffffffffffffffff168673ffffffffffffffffffffffffffffffffffffffff168273ffffffffffffffffffffffffffffffffffffffff167f4a39dc06d4c0dbc64b70af90fd698a233a518aa5d07e595d983b8c0526c8f7fb87876040516119ab929190614371565b60405180910390a46119c1818787878787612262565b6119cf81878787878761226a565b505050505050565b600073ffffffffffffffffffffffffffffffffffffffff168473ffffffffffffffffffffffffffffffffffffffff161415611a47576040517f08c379a0000000000000000000000000000000000000000000000000000000008152600401611a3e9061441a565b60405180910390fd5b6000611a516116ad565b90506000611a5e85612451565b90506000611a6b85612451565b9050611a7c8360008985858961224c565b8460008088815260200190815260200160002060008973ffffffffffffffffffffffffffffffffffffffff1673ffffffffffffffffffffffffffffffffffffffff1681526020019081526020016000206000828254611adb91906140da565b925050819055508673ffffffffffffffffffffffffffffffffffffffff16600073ffffffffffffffffffffffffffffffffffffffff168473ffffffffffffffffffffffffffffffffffffffff167fc3d58168c5ae7397731d063d5bbf3d657854427343f4c083240f7aacaa2d0f628989604051611b5992919061443a565b60405180910390a4611b7083600089858589612262565b611b7f836000898989896124cb565b50505050505050565b611b906116ad565b73ffffffffffffffffffffffffffffffffffffffff16611bae610e7a565b73ffffffffffffffffffffffffffffffffffffffff1614611c04576040517f08c379a0000000000000000000000000000000000000000000000000000000008152600401611bfb906144af565b60405180910390fd5b565b6000600360009054906101000a900473ffffffffffffffffffffffffffffffffffffffff16905081600360006101000a81548173ffffffffffffffffffffffffffffffffffffffff021916908373ffffffffffffffffffffffffffffffffffffffff1602179055508173ffffffffffffffffffffffffffffffffffffffff168173ffffffffffffffffffffffffffffffffffffffff167f8be0079c531659141344cd1fd0a4f28419497f9722a3daafe3b4186f6b6457e060405160405180910390a35050565b8173ffffffffffffffffffffffffffffffffffffffff168373ffffffffffffffffffffffffffffffffffffffff161415611d3b576040517f08c379a0000000000000000000000000000000000000000000000000000000008152600401611d3290614541565b60405180910390fd5b80600160008573ffffffffffffffffffffffffffffffffffffffff1673ffffffffffffffffffffffffffffffffffffffff16815260200190815260200160002060008473ffffffffffffffffffffffffffffffffffffffff1673ffffffffffffffffffffffffffffffffffffffff16815260200190815260200160002060006101000a81548160ff0219169083151502179055508173ffffffffffffffffffffffffffffffffffffffff168373ffffffffffffffffffffffffffffffffffffffff167f17307eab39ab6107e8899845ad3d59bd9653f200f220920489ca2b5937696c3183604051611e2c9190612aab565b60405180910390a3505050565b600073ffffffffffffffffffffffffffffffffffffffff168473ffffffffffffffffffffffffffffffffffffffff161415611ea9576040517f08c379a0000000000000000000000000000000000000000000000000000000008152600401611ea0906142bf565b60405180910390fd5b6000611eb36116ad565b90506000611ec085612451565b90506000611ecd85612451565b9050611edd83898985858961224c565b600080600088815260200190815260200160002060008a73ffffffffffffffffffffffffffffffffffffffff1673ffffffffffffffffffffffffffffffffffffffff16815260200190815260200160002054905085811015611f74576040517f08c379a0000000000000000000000000000000000000000000000000000000008152600401611f6b90614351565b60405180910390fd5b85810360008089815260200190815260200160002060008b73ffffffffffffffffffffffffffffffffffffffff1673ffffffffffffffffffffffffffffffffffffffff168152602001908152602001600020819055508560008089815260200190815260200160002060008a73ffffffffffffffffffffffffffffffffffffffff1673ffffffffffffffffffffffffffffffffffffffff168152602001908152602001600020600082825461202991906140da565b925050819055508773ffffffffffffffffffffffffffffffffffffffff168973ffffffffffffffffffffffffffffffffffffffff168573ffffffffffffffffffffffffffffffffffffffff167fc3d58168c5ae7397731d063d5bbf3d657854427343f4c083240f7aacaa2d0f628a8a6040516120a692919061443a565b60405180910390a46120bc848a8a86868a612262565b6120ca848a8a8a8a8a6124cb565b505050505050505050565b6001816000016000828254019250508190555050565b600081600001549050919050565b600080600090507a184f03e93ff9f4daa797ed6e38ed64bf6a1f0100000000000000008310612157577a184f03e93ff9f4daa797ed6e38ed64bf6a1f010000000000000000838161214d5761214c613db9565b5b0492506040810190505b6d04ee2d6d415b85acef81000000008310612194576d04ee2d6d415b85acef8100000000838161218a57612189613db9565b5b0492506020810190505b662386f26fc1000083106121c357662386f26fc1000083816121b9576121b8613db9565b5b0492506010810190505b6305f5e10083106121ec576305f5e10083816121e2576121e1613db9565b5b0492506008810190505b612710831061221157612710838161220757612206613db9565b5b0492506004810190505b60648310612234576064838161222a57612229613db9565b5b0492506002810190505b600a8310612243576001810190505b80915050919050565b61225a8686868686866126b2565b505050505050565b505050505050565b6122898473ffffffffffffffffffffffffffffffffffffffff16612884565b15612449578373ffffffffffffffffffffffffffffffffffffffff1663bc197c8187878686866040518663ffffffff1660e01b81526004016122cf9594939291906145b6565b602060405180830381600087803b1580156122e957600080fd5b505af192505050801561231a57506040513d601f19601f820116820180604052508101906123179190614633565b60015b6123c05761232661466d565b806308c379a01415612383575061233b61468f565b806123465750612385565b806040517f08c379a000000000000000000000000000000000000000000000000000000000815260040161237a9190612b8c565b60405180910390fd5b505b6040517f08c379a00000000000000000000000000000000000000000000000000000000081526004016123b790614797565b60405180910390fd5b63bc197c8160e01b7bffffffffffffffffffffffffffffffffffffffffffffffffffffffff1916817bffffffffffffffffffffffffffffffffffffffffffffffffffffffff191614612447576040517f08c379a000000000000000000000000000000000000000000000000000000000815260040161243e90614829565b60405180910390fd5b505b505050505050565b60606000600167ffffffffffffffff8111156124705761246f612bf8565b5b60405190808252806020026020018201604052801561249e5781602001602082028036833780820191505090505b50905082816000815181106124b6576124b5613b8d565b5b60200260200101818152505080915050919050565b6124ea8473ffffffffffffffffffffffffffffffffffffffff16612884565b156126aa578373ffffffffffffffffffffffffffffffffffffffff1663f23a6e6187878686866040518663ffffffff1660e01b8152600401612530959493929190614849565b602060405180830381600087803b15801561254a57600080fd5b505af192505050801561257b57506040513d601f19601f820116820180604052508101906125789190614633565b60015b6126215761258761466d565b806308c379a014156125e4575061259c61468f565b806125a757506125e6565b806040517f08c379a00000000000000000000000000000000000000000000000000000000081526004016125db9190612b8c565b60405180910390fd5b505b6040517f08c379a000000000000000000000000000000000000000000000000000000000815260040161261890614797565b60405180910390fd5b63f23a6e6160e01b7bffffffffffffffffffffffffffffffffffffffffffffffffffffffff1916817bffffffffffffffffffffffffffffffffffffffffffffffffffffffff1916146126a8576040517f08c379a000000000000000000000000000000000000000000000000000000000815260040161269f90614829565b60405180910390fd5b505b505050505050565b6126c08686868686866128a7565b600073ffffffffffffffffffffffffffffffffffffffff168573ffffffffffffffffffffffffffffffffffffffff1614156127725760005b83518110156127705782818151811061271457612713613b8d565b5b60200260200101516004600086848151811061273357612732613b8d565b5b60200260200101518152602001908152602001600020600082825461275891906140da565b925050819055508061276990613cde565b90506126f8565b505b600073ffffffffffffffffffffffffffffffffffffffff168473ffffffffffffffffffffffffffffffffffffffff16141561287c5760005b835181101561287a5760008482815181106127c8576127c7613b8d565b5b6020026020010151905060008483815181106127e7576127e6613b8d565b5b602002602001015190506000600460008481526020019081526020016000205490508181101561284c576040517f08c379a000000000000000000000000000000000000000000000000000000000815260040161284390614915565b60405180910390fd5b81810360046000858152602001908152602001600020819055505050508061287390613cde565b90506127aa565b505b505050505050565b6000808273ffffffffffffffffffffffffffffffffffffffff163b119050919050565b505050505050565b6040518060a0016040528060008152602001600060ff168152602001600060ff168152602001600060ff168152602001600060028111156128f3576128f2613189565b5b81525090565b6000604051905090565b600080fd5b600080fd5b600073ffffffffffffffffffffffffffffffffffffffff82169050919050565b60006129388261290d565b9050919050565b6129488161292d565b811461295357600080fd5b50565b6000813590506129658161293f565b92915050565b6000819050919050565b61297e8161296b565b811461298957600080fd5b50565b60008135905061299b81612975565b92915050565b600080604083850312156129b8576129b7612903565b5b60006129c685828601612956565b92505060206129d78582860161298c565b9150509250929050565b6129ea8161296b565b82525050565b6000602082019050612a0560008301846129e1565b92915050565b60007fffffffff0000000000000000000000000000000000000000000000000000000082169050919050565b612a4081612a0b565b8114612a4b57600080fd5b50565b600081359050612a5d81612a37565b92915050565b600060208284031215612a7957612a78612903565b5b6000612a8784828501612a4e565b91505092915050565b60008115159050919050565b612aa581612a90565b82525050565b6000602082019050612ac06000830184612a9c565b92915050565b600060208284031215612adc57612adb612903565b5b6000612aea8482850161298c565b91505092915050565b600081519050919050565b600082825260208201905092915050565b60005b83811015612b2d578082015181840152602081019050612b12565b83811115612b3c576000848401525b50505050565b6000601f19601f8301169050919050565b6000612b5e82612af3565b612b688185612afe565b9350612b78818560208601612b0f565b612b8181612b42565b840191505092915050565b60006020820190508181036000830152612ba68184612b53565b905092915050565b6000608082019050612bc360008301876129e1565b612bd060208301866129e1565b612bdd60408301856129e1565b612bea60608301846129e1565b95945050505050565b600080fd5b7f4e487b7100000000000000000000000000000000000000000000000000000000600052604160045260246000fd5b612c3082612b42565b810181811067ffffffffffffffff82111715612c4f57612c4e612bf8565b5b80604052505050565b6000612c626128f9565b9050612c6e8282612c27565b919050565b600067ffffffffffffffff821115612c8e57612c8d612bf8565b5b602082029050602081019050919050565b600080fd5b6000612cb7612cb284612c73565b612c58565b90508083825260208201905060208402830185811115612cda57612cd9612c9f565b5b835b81811015612d035780612cef888261298c565b845260208401935050602081019050612cdc565b5050509392505050565b600082601f830112612d2257612d21612bf3565b5b8135612d32848260208601612ca4565b91505092915050565b600080fd5b600067ffffffffffffffff821115612d5b57612d5a612bf8565b5b612d6482612b42565b9050602081019050919050565b82818337600083830152505050565b6000612d93612d8e84612d40565b612c58565b905082815260208101848484011115612daf57612dae612d3b565b5b612dba848285612d71565b509392505050565b600082601f830112612dd757612dd6612bf3565b5b8135612de7848260208601612d80565b91505092915050565b600080600080600060a08688031215612e0c57612e0b612903565b5b6000612e1a88828901612956565b9550506020612e2b88828901612956565b945050604086013567ffffffffffffffff811115612e4c57612e4b612908565b5b612e5888828901612d0d565b935050606086013567ffffffffffffffff811115612e7957612e78612908565b5b612e8588828901612d0d565b925050608086013567ffffffffffffffff811115612ea657612ea5612908565b5b612eb288828901612dc2565b9150509295509295909350565b600060ff82169050919050565b612ed581612ebf565b8114612ee057600080fd5b50565b600081359050612ef281612ecc565b92915050565b60008060008060808587031215612f1257612f11612903565b5b6000612f208782880161298c565b9450506020612f3187828801612ee3565b9350506040612f4287828801612ee3565b9250506060612f5387828801612ee3565b91505092959194509250565b600067ffffffffffffffff821115612f7a57612f79612bf8565b5b602082029050602081019050919050565b6000612f9e612f9984612f5f565b612c58565b90508083825260208201905060208402830185811115612fc157612fc0612c9f565b5b835b81811015612fea5780612fd68882612956565b845260208401935050602081019050612fc3565b5050509392505050565b600082601f83011261300957613008612bf3565b5b8135613019848260208601612f8b565b91505092915050565b6000806040838503121561303957613038612903565b5b600083013567ffffffffffffffff81111561305757613056612908565b5b61306385828601612ff4565b925050602083013567ffffffffffffffff81111561308457613083612908565b5b61309085828601612d0d565b9150509250929050565b600081519050919050565b600082825260208201905092915050565b6000819050602082019050919050565b6130cf8161296b565b82525050565b60006130e183836130c6565b60208301905092915050565b6000602082019050919050565b60006131058261309a565b61310f81856130a5565b935061311a836130b6565b8060005b8381101561314b57815161313288826130d5565b975061313d836130ed565b92505060018101905061311e565b5085935050505092915050565b6000602082019050818103600083015261317281846130fa565b905092915050565b61318381612ebf565b82525050565b7f4e487b7100000000000000000000000000000000000000000000000000000000600052602160045260246000fd5b600381106131c9576131c8613189565b5b50565b60008190506131da826131b8565b919050565b60006131ea826131cc565b9050919050565b6131fa816131df565b82525050565b60a08201600082015161321660008501826130c6565b506020820151613229602085018261317a565b50604082015161323c604085018261317a565b50606082015161324f606085018261317a565b50608082015161326260808501826131f1565b50505050565b600060a08201905061327d6000830184613200565b92915050565b61328c8161292d565b82525050565b60006020820190506132a76000830184613283565b92915050565b6132b681612a90565b81146132c157600080fd5b50565b6000813590506132d3816132ad565b92915050565b600080604083850312156132f0576132ef612903565b5b60006132fe85828601612956565b925050602061330f858286016132c4565b9150509250929050565b600081519050919050565b600082825260208201905092915050565b6000819050602082019050919050565b60a08201600082015161335b60008501826130c6565b50602082015161336e602085018261317a565b506040820151613381604085018261317a565b506060820151613394606085018261317a565b5060808201516133a760808501826131f1565b50505050565b60006133b98383613345565b60a08301905092915050565b6000602082019050919050565b60006133dd82613319565b6133e78185613324565b93506133f283613335565b8060005b8381101561342357815161340a88826133ad565b9750613415836133c5565b9250506001810190506133f6565b5085935050505092915050565b6000602082019050818103600083015261344a81846133d2565b905092915050565b6000806040838503121561346957613468612903565b5b600061347785828601612956565b925050602061348885828601612956565b9150509250929050565b600080600080600060a086880312156134ae576134ad612903565b5b60006134bc88828901612956565b95505060206134cd88828901612956565b94505060406134de8882890161298c565b93505060606134ef8882890161298c565b925050608086013567ffffffffffffffff8111156135105761350f612908565b5b61351c88828901612dc2565b9150509295509295909350565b60006020828403121561353f5761353e612903565b5b600061354d84828501612956565b91505092915050565b60008060006060848603121561356f5761356e612903565b5b600061357d86828701612ee3565b935050602061358e86828701612ee3565b925050604061359f86828701612ee3565b9150509250925092565b7f455243313135353a2061646472657373207a65726f206973206e6f742061207660008201527f616c6964206f776e657200000000000000000000000000000000000000000000602082015250565b6000613605602a83612afe565b9150613610826135a9565b604082019050919050565b60006020820190508181036000830152613634816135f8565b9050919050565b7f45524331313535204d657461646174613a2055524920717565727920666f722060008201527f6e6f6e6578697374656e7420746f6b656e000000000000000000000000000000602082015250565b6000613697603183612afe565b91506136a28261363b565b604082019050919050565b600060208201905081810360008301526136c68161368a565b9050919050565b600081905092915050565b7f7b00000000000000000000000000000000000000000000000000000000000000600082015250565b600061370e6001836136cd565b9150613719826136d8565b600182019050919050565b7f226e616d6522203a20224672616d652023000000000000000000000000000000600082015250565b600061375a6011836136cd565b915061376582613724565b601182019050919050565b600061377b82612af3565b61378581856136cd565b9350613795818560208601612b0f565b80840191505092915050565b7f222c000000000000000000000000000000000000000000000000000000000000600082015250565b60006137d76002836136cd565b91506137e2826137a1565b600282019050919050565b7f226465736372697074696f6e223a2022412062696379636c65206672616d652060008201527f697320746865206d61696e20636f6d706f6e656e74206f66206120626963796360208201527f6c652c206f6e746f20776869636820776865656c7320616e64206f746865722060408201527f636f6d706f6e656e74732061726520666974746564222c000000000000000000606082015250565b60006138956077836136cd565b91506138a0826137ed565b607782019050919050565b7f22696d616765223a202268747470733a2f2f676174657761792e70696e61746160008201527f2e636c6f75642f697066732f516d506467755269706631436579356b3339446d60208201527f41314470457459676e525a37326f5266524b3161794c366165433f5f676c3d3160408201527f2a31626d726637692a72735f67612a597a646b596d4d794e6d55744e474e6a4f60608201527f5330304d5745304c5745794d5441744f5445774d7a55324f474e6d4d7a4d352a60808201527f72735f67615f35524d505847313454452a4d5459344d7a4d354e7a45304d793460a08201527f314c6a45754d5459344d7a4d354e7a45304e7934314e6934774c6a412e222c0060c082015250565b60006139c560df836136cd565b91506139d0826138ab565b60df82019050919050565b7f7d00000000000000000000000000000000000000000000000000000000000000600082015250565b6000613a116001836136cd565b9150613a1c826139db565b600182019050919050565b6000613a3282613701565b9150613a3d8261374d565b9150613a498285613770565b9150613a54826137ca565b9150613a5f82613888565b9150613a6a826139b8565b9150613a768284613770565b9150613a8182613a04565b91508190509392505050565b7f646174613a6170706c69636174696f6e2f6a736f6e3b6261736536342c000000600082015250565b6000613ac3601d836136cd565b9150613ace82613a8d565b601d82019050919050565b6000613ae482613ab6565b9150613af08284613770565b915081905092915050565b7f455243313135353a2063616c6c6572206973206e6f7420746f6b656e206f776e60008201527f6572206f7220617070726f766564000000000000000000000000000000000000602082015250565b6000613b57602e83612afe565b9150613b6282613afb565b604082019050919050565b60006020820190508181036000830152613b8681613b4a565b9050919050565b7f4e487b7100000000000000000000000000000000000000000000000000000000600052603260045260246000fd5b7f4e487b7100000000000000000000000000000000000000000000000000000000600052602260045260246000fd5b60006002820490506001821680613c0357607f821691505b60208210811415613c1757613c16613bbc565b5b50919050565b7f455243313135353a206163636f756e747320616e6420696473206c656e67746860008201527f206d69736d617463680000000000000000000000000000000000000000000000602082015250565b6000613c79602983612afe565b9150613c8482613c1d565b604082019050919050565b60006020820190508181036000830152613ca881613c6c565b9050919050565b7f4e487b7100000000000000000000000000000000000000000000000000000000600052601160045260246000fd5b6000613ce98261296b565b91507fffffffffffffffffffffffffffffffffffffffffffffffffffffffffffffffff821415613d1c57613d1b613caf565b5b600182019050919050565b7f4f776e61626c653a206e6577206f776e657220697320746865207a65726f206160008201527f6464726573730000000000000000000000000000000000000000000000000000602082015250565b6000613d83602683612afe565b9150613d8e82613d27565b604082019050919050565b60006020820190508181036000830152613db281613d76565b9050919050565b7f4e487b7100000000000000000000000000000000000000000000000000000000600052601260045260246000fd5b6000613df38261296b565b9150613dfe8361296b565b925082821015613e1157613e10613caf565b5b828203905092915050565b7f2261747472696275746573223a205b0000000000000000000000000000000000600082015250565b6000613e52600f836136cd565b9150613e5d82613e1c565b600f82019050919050565b7f2274726169745f74797065223a20224d6f64656c222c2276616c7565223a2022600082015250565b6000613e9e6020836136cd565b9150613ea982613e68565b602082019050919050565b7f227d2c0000000000000000000000000000000000000000000000000000000000600082015250565b6000613eea6003836136cd565b9150613ef582613eb4565b600382019050919050565b7f2274726169745f74797065223a20224d61726b222c2276616c7565223a202200600082015250565b6000613f36601f836136cd565b9150613f4182613f00565b601f82019050919050565b7f2274726169745f74797065223a2022436f6c6f72222c2276616c7565223a2022600082015250565b6000613f826020836136cd565b9150613f8d82613f4c565b602082019050919050565b7f227d000000000000000000000000000000000000000000000000000000000000600082015250565b6000613fce6002836136cd565b9150613fd982613f98565b600282019050919050565b7f5d00000000000000000000000000000000000000000000000000000000000000600082015250565b600061401a6001836136cd565b915061402582613fe4565b600182019050919050565b600061403b82613e45565b915061404682613701565b915061405182613e91565b915061405d8286613770565b915061406882613edd565b915061407382613701565b915061407e82613f29565b915061408a8285613770565b915061409582613edd565b91506140a082613701565b91506140ab82613f75565b91506140b78284613770565b91506140c282613fc1565b91506140cd8261400d565b9150819050949350505050565b60006140e58261296b565b91506140f08361296b565b9250827fffffffffffffffffffffffffffffffffffffffffffffffffffffffffffffffff0382111561412557614124613caf565b5b828201905092915050565b600061413b8261296b565b91506141468361296b565b92508261415657614155613db9565b5b828204905092915050565b600061416c8261296b565b91506141778361296b565b9250817fffffffffffffffffffffffffffffffffffffffffffffffffffffffffffffffff04831182151516156141b0576141af613caf565b5b828202905092915050565b7f455243313135353a2069647320616e6420616d6f756e7473206c656e6774682060008201527f6d69736d61746368000000000000000000000000000000000000000000000000602082015250565b6000614217602883612afe565b9150614222826141bb565b604082019050919050565b600060208201905081810360008301526142468161420a565b9050919050565b7f455243313135353a207472616e7366657220746f20746865207a65726f20616460008201527f6472657373000000000000000000000000000000000000000000000000000000602082015250565b60006142a9602583612afe565b91506142b48261424d565b604082019050919050565b600060208201905081810360008301526142d88161429c565b9050919050565b7f455243313135353a20696e73756666696369656e742062616c616e636520666f60008201527f72207472616e7366657200000000000000000000000000000000000000000000602082015250565b600061433b602a83612afe565b9150614346826142df565b604082019050919050565b6000602082019050818103600083015261436a8161432e565b9050919050565b6000604082019050818103600083015261438b81856130fa565b9050818103602083015261439f81846130fa565b90509392505050565b7f455243313135353a206d696e7420746f20746865207a65726f2061646472657360008201527f7300000000000000000000000000000000000000000000000000000000000000602082015250565b6000614404602183612afe565b915061440f826143a8565b604082019050919050565b60006020820190508181036000830152614433816143f7565b9050919050565b600060408201905061444f60008301856129e1565b61445c60208301846129e1565b9392505050565b7f4f776e61626c653a2063616c6c6572206973206e6f7420746865206f776e6572600082015250565b6000614499602083612afe565b91506144a482614463565b602082019050919050565b600060208201905081810360008301526144c88161448c565b9050919050565b7f455243313135353a2073657474696e6720617070726f76616c2073746174757360008201527f20666f722073656c660000000000000000000000000000000000000000000000602082015250565b600061452b602983612afe565b9150614536826144cf565b604082019050919050565b6000602082019050818103600083015261455a8161451e565b9050919050565b600081519050919050565b600082825260208201905092915050565b600061458882614561565b614592818561456c565b93506145a2818560208601612b0f565b6145ab81612b42565b840191505092915050565b600060a0820190506145cb6000830188613283565b6145d86020830187613283565b81810360408301526145ea81866130fa565b905081810360608301526145fe81856130fa565b90508181036080830152614612818461457d565b90509695505050505050565b60008151905061462d81612a37565b92915050565b60006020828403121561464957614648612903565b5b60006146578482850161461e565b91505092915050565b60008160e01c9050919050565b600060033d111561468c5760046000803e614689600051614660565b90505b90565b600060443d101561469f57614722565b6146a76128f9565b60043d036004823e80513d602482011167ffffffffffffffff821117156146cf575050614722565b808201805167ffffffffffffffff8111156146ed5750505050614722565b80602083010160043d03850181111561470a575050505050614722565b61471982602001850186612c27565b82955050505050505b90565b7f455243313135353a207472616e7366657220746f206e6f6e2d4552433131353560008201527f526563656976657220696d706c656d656e746572000000000000000000000000602082015250565b6000614781603483612afe565b915061478c82614725565b604082019050919050565b600060208201905081810360008301526147b081614774565b9050919050565b7f455243313135353a204552433131353552656365697665722072656a6563746560008201527f6420746f6b656e73000000000000000000000000000000000000000000000000602082015250565b6000614813602883612afe565b915061481e826147b7565b604082019050919050565b6000602082019050818103600083015261484281614806565b9050919050565b600060a08201905061485e6000830188613283565b61486b6020830187613283565b61487860408301866129e1565b61488560608301856129e1565b8181036080830152614897818461457d565b90509695505050505050565b7f455243313135353a206275726e20616d6f756e74206578636565647320746f7460008201527f616c537570706c79000000000000000000000000000000000000000000000000602082015250565b60006148ff602883612afe565b915061490a826148a3565b604082019050919050565b6000602082019050818103600083015261492e816148f2565b905091905056fe4142434445464748494a4b4c4d4e4f505152535455565758595a6162636465666768696a6b6c6d6e6f707172737475767778797a303132333435363738392b2fa2646970667358221220322ff17836c573b6479778f750f645a9b778f248f56f0003547719ede4db57ba64736f6c63430008090033",
  "linkReferences": {},
  "deployedLinkReferences": {}
}